:1000000019C028C027C026C025C024C023C022C0D4
:1000100021C020C01FC01EC01DC01CC01BC01AC0F4
:1000200019C018C017C016C015C014C013C012C024
:1000300011C010C011241FBECFEFD2E0DEBFCDBF74
:1000400013E0A0E0B1E001C01D92A937B107E1F7CC
:100050001BD054C0D5CF21E028B918B8E82FF92F0C
:1000600080E090E032E0DF012191220F220F28B9D9
:1000700038B92C91220F220F220F28B918B80196F7
:100080008830910581F70895FF920F931F93DF93B6
:10009000CF93CDB7DEB728970FB6F894DEBF0FBE6B
:1000A000CDBF87E087B9FF24F3948E010F5F1F4F08
:1000B000F982FA821B821C82FD821E821F82F886D0
:1000C000C801C9DFF5CF9093C5008093C40088E1D3
:1000D0008093C1008EE08093C2000895E0ECF0E0D0
:1000E000908195FFFDCF8093C6000895E0ECF0E08D
:1000F00080818823ECF78091C6000895F894FFCFA3
:00000001FF
